:060000000C947D020C943B
:10000600BA020C9400000C9400000C9400000C94AE
:1000160008030C9400000C9400000C9400000C944F
:1000260000000C9400000C9400000C9400000C944A
:10003600CE020C9400000C9400000C9400000C946A
:1000460000000C9400000C9400000C940000415435
:10005600504E3D2241535553222C6B6F6C62617397
:10006600613132330D0A0000415450433D302C318A
:1000760038382E3232352E33322E3131312C35305E
:1000860030300D0A0000415450523D002C353030BE
:100096000D0A0000415450543D00504F5354202F38
:1000A6006170692F76312F66696C6C7320485454E1
:1000B600502F312E310D0A486F73743A203138387B
:1000C6002E3232352E33322E3131313A3530303010
:1000D6000D0A4163636570743A202A2F2A0D0A437C
:1000E6006F6E74656E742D547970653A2061707008
:1000F6006C69636174696F6E2F6A736F6E0D0A4364
:100106006F6E74656E742D4C656E6774683A200068
:100116000D0A0D0A00007B22736E223A2200222C61
:10012600226474223A002C226374726C5F64742217
:100136003A002C2266223A002C22766363223A0089
:100146002C2264745F63223A0000474554202F61D5
:1001560070692F76312F7365727665725F74696D7B
:10016600657374616D7020485454502F312E310DD3
:100176000A486F73743A203138382E3232352E33AE
:10018600322E3131313A353030300D0A41636365F4
:1001960070743A202A2F2A0D0A436F6E74656E74A6
:1001A6002D547970653A206170706C696361746969
:1001B6006F6E2F6A736F6E0D0A436F6E74656E7481
:1001C6002D4C656E6774683A20300D0A0D0A0000E2
:1001D600504F5354202F6170692F76312F70696EFE
:1001E600677320485454502F312E310D0A486F73CF
:1001F600743A203138382E3232352E33322E3131A0
:10020600313A353030300D0A4163636570743A20F7
:100216002A2F2A0D0A436F6E74656E742D547970F9
:10022600653A206170706C69636174696F6E2F6ADC
:10023600736F6E0D0A436F6E74656E742D4C656E2A
:100246006774683A20002C226374726C223A226624
:10025600775F322E302C635F52544C383731302C56
:10026600625F322E302C0000222C22665F73223A07
:100276007B2273223A7B7D7D2C2264745F63223A53
:1002860000000000320064000500000000000000CD
:100296000000000000000000000000000000000058
:1002A6000000000000000000000000000000000048
:1002B6000000000000000000000000000000000038
:1002C6000000000000000000000000000000000028
:1002D6000000000000000000000000000000000018
:1002E6000000000000000000000000000000000008
:1002F60000000000000000000000000000000000F8
:1003060000000000000000000000000000000000E7
:1003160000000000000000000000000000000000D7
:1003260000000000000000000000000000000000C7
:1003360000000000000000000000000000000000B7
:1003460000016E6F206368616E6765004F4B005752
:1003560049464920434F4E4E454354454400524575
:1003660041445900485454502F312E3120005353E4
:100376005F4F4B3A25690D0A0053533A25690D0A1A
:10038600005354524E0D0A004154573F0D0A005374
:1003960054412C00302E302E302E3000415457441C
:1003A6000D0A005B415457445D204F4B005B41549E
:1003B600504E5D204F4B004552524F5200636F6EB8
:1003C6005F69643D004552524F523A004552524FC2
:1003D600523A25630D0A002563002564002C256327
:1003E6003A002569002530325800256C75002564D1
:1003F6002E25640025647D004531310D0A004642F4
:10040600533D25640D0A004530390D0A0048545401
:10041600502F312E3120323030204F4B0022747352
:10042600223A0054534F3D256C750D0A0045303174
:100436000D0A004530320D0A004531300D0A0025FF
:10044600730045485454500D0A005243500D0A009B
:1004560053797374656D207374617274210D0A008B
:10046600566363203D2025642E25640D0A00010095
:10047600020088020100FB028A02010061058C026B
:10048600010064058E020A006002480303006A0246
:1004960052030F006D02550306007C0264030A0036
:1004A60082026A0305008C029503080091029A03F2
:1004B6000A009902A9030A00A302B3030600AD02CB
:1004C600BD030800B302C3030800BB02C303060052
:1004D600C302BD030700C902CB031000D0021304F8
:1004E6000600E00223040500E602950304000A0064
:1004F60044030000F894EE27ECBBF1E0FBBFEBBF32
:10050600E5BFF8E1F1BDE1BD8DE0A2E0BB27ED93CB
:100516008A95E9F780E098E0A0E6ED930197E9F780
:10052600E4E7F4E085919591009761F0A591B59186
:1005360005901590BF01F00105900D920197E1F726
:10054600FB01F0CFEFE5EDBFE8E0EEBFC0E6D2E09D
:100556000C94810A0E94F20A0E94FA0A0895E88120
:10056600E095A091FA02EA23E093FA024CC00E94B9
:100576001C0DA3EFB2E00E942B0DE1E0E093F9021F
:100586000E94340DE093EB02F093EC026093ED02CF
:100596007093EE02BCC0AA93EA93FA93EFB7EA937C
:1005A6001A930A931BB10CB1E12FEC71C9F4F20155
:1005B60031962F013197E350FD4F0083E0E0F2E0E2
:1005C600E415F50511F444245524F40131964F0140
:1005D600E030A2E0FA0721F488249924689420F8F0
:1005E60009911991E991EFBFF991E991A9911895AE
:1005F600E881E062E7B986E08A95F1F7369A349B9E
:10060600FECF349AE5B1219608950E941C0DAFEEF7
:10061600B2E00E942B0DE091F902E03019F4E0E01F
:10062600E093FB02E091F902E03029F0E091FB0251
:10063600EF5FE093FB02A0916105AF5FA0936105B8
:10064600AB3F18F0EBEFE0936105B394EBE3EB15EA
:1006560038F4A394BB24E0916405EF5FE09364054E
:10066600EBE3EA1530F4AA24D394E4E6ED1508F496
:10067600DD24E4E0ED1570F4E091FA02E160E09328
:10068600FA02DD24E0E0E093F802E091FC02EE7F5E
:10069600E093FC02A091FB02A53120F0E091F90263
:1006A600E03061F4A0916105A43138F0A0916105B4
:1006B600A63118F40E943D0D09F410C0E091FA022B
:1006C600E260E093FA02E0E0E093FB02E4E6E09306
:1006D6006105E0E0E093F802E093F902A091640579
:1006E600A53078F0E091FA02E460E093FA02E0E0E7
:1006F600E0936405E093F802E091FC02EB7FE0935F
:10070600FC02E091FA02E03011F4939A23DFE991BA
:10071600EFBFF991E991B991A9919991899179914F
:100726006991F9901990099018951A930A9300E027
:1007360010E000E010E00030E2E01E074CF4ADEF00
:10074600B2E0A00FB11FE0E0EC930F5F1F4FF3CFB5
:100756008824992444245524099119910895E5DFA4
:10076600939A0E94430D9398CAC10E94490DAA30DC
:10077600E0E0BE07E0E08E07E0E09E0710F4E1E06F
:1007860070C00E94490DA436E0E0BE07E0E08E0787
:10079600E0E09E0710F4E2E064C00E94490DA83E26
:1007A600E3E0BE07E0E08E07E0E09E0710F4E3E03A
:1007B60058C00E94490DA031E7E2BE07E0E08E076F
:1007C600E0E09E0710F4E4E04CC00E94490DA03A18
:1007D600E6E8BE07E1E08E07E0E09E0710F4E5E0FC
:1007E60040C00E94490DA034E2E4BE07EFE08E0748
:1007F600E0E09E0710F4E6E034C00E94490DA03800
:10080600E6E9BE07E8E98E07E0E09E0710F4E7E0B8
:1008160028C00E94490DA030E1EEBE07E5EF8E0725
:10082600E5E09E0710F4E8E01CC00E94490DA030E8
:10083600EAECBE07EAE98E07EBE39E0710F4E9E06F
:1008460010C00E94EE100E94DC0FDF01CB01E9EF21
:10085600F2E065E170E50E940C1010F4EAE001C0D8
:10086600EBE0249608950E94361100E010E020E0A7
:1008760030E040E050E0E885F9853096E887F98772
:10088600EE81FF813096EE83FF83F8010E944C0DC6
:10089600EC91E03019F00F5F1F4FF7CFFA010E947D
:1008A6004C0DAC91A03041F0F901AE81BF81AE0F85
:1008B600BF1FAC91A03009F417C0FA010E944C0D7D
:1008C6000C90F901AE81BF81AE0FBF1FEC91E01510
:1008D60019F44F5F5F4F05C04017510710F440E011
:1008E60050E02F5F3F4FDACF042E052A19F040174C
:1008F600510709F004C0F9010E943D1186C0E0E0ED
:10090600F0E00E943D1181C01A9314E1103061F0AD
:100916000E94510DECE7F2E00E94570D309711F05E
:10092600E1E0DCC01150F2CFE0E0D8C026970E948B
:10093600381114E120E030E0103011F40C94060573
:100946000E945F0DE2E8F2E00E94570D9F01022E21
:10095600032A11F40C94FA04ADEFB2E0A20FB31F10
:10096600EC910E94650DEC83FD83A4E6B0E00E9445
:100976007310EC83FD83F901E250FD4FE0810E9484
:10098600650D0E94680DAAE0B0E00E947310EE8328
:10099600FF83F901E150FD4FE0810E94650DE88774
:1009A600F987EE81FF81AC81BD81EA0FFB1FA88527
:1009B600B985EA0FFB1FEC83FD83AC81BD81A83CA2
:1009C600E0E0BE0724F0AC32E1E0BE070CF009C05F
:1009D600E4E7F3E00E946B0D10E020E030E0E0E099
:1009E60012C0EFE7F3E00E946B0DE1E00CC011507E
:1009F600123040F4E7E8F3E00E94780D0E945F0DA4
:100A0600E2E001C099CF0E943F112A9608951A93F9
:100A160014E68BDEA4DE0E947F0DE4E5F0E00E9482
:100A2600780D1030F1F00E94510DE3EAF2E00E94D9
:100A3600570D309721F00E945F0DE0E04FC0EDEAC0
:100A4600F2E00E94570D309741F06FDEE4E5F0E0EA
:100A56000E94780D0E945F0D14E6103009F01150C7
:100A6600E0CF63DEE1E03AC01A9314E60E945F0D20
:100A76005CDEEEE6F0E00E94780D103069F1115070
:100A86000E94510DE3EBF2E00E94570D309761F0A2
:100A9600EBEBF2E00E94570DE0936305E0916305EE
:100AA6000E94850DE08114C0E3ECF2E00E94570D30
:100AB600309789F0E9ECF2E00E94570DE350FD4FC4
:100AC600E081E0936305E2EDF3E00E94890DE0E347
:100AD600E093630510E0D1CF0E945F0D1991089550
:100AE6000E947F0D22DEECE8F0E00E94780DEDED2D
:100AF600F3E00E94890DE2E9F0E00E94780DE4EF50
:100B0600F1E00E94970D089524971A9311E0E09161
:100B1600FA02E27009F023DE0E949B0D11F00C949C
:100B260067060E94A20D0E94A90D0E94AE0DFF93BA
:100B3600EF930E94BB0DAF91BF91EA0FFB1FFF938E
:100B4600EF930E94C90DAF91BF91EA0FFB1FFF9370
:100B5600EF930E94D70DAF91BF91EA0FFB1FFF9352
:100B6600EF930E94E60DAF91BF910E94F50D0E9492
:100B7600000EE0E0E093F802103011F40C946606E3
:100B86000E94030ED2DDE0EAF0E00E94780DE8EE66
:100B9600F3E0FA93EA930E94BB0D7196FF93EF93ED
:100BA6000E94060E0E940A0EAF91BF91EA0FFB1F2C
:100BB600FF93EF930E94C90DAF91BF91EA0FFB1F00
:100BC600B796FF93EF930E94D70DAF91BF91EA0FAF
:100BD600FB1FFF93EF930E94E60DAF91BF910E941A
:100BE600F50D0E940E0E0E94110E10E0143040F416
:100BF6000E94140E0E94170E0E94290E1F5FF6CF48
:100C06000E94380E0E943B0E0E94060E0E94400E65
:100C1600ECE2F1E00E94780D0E943B0E0E94450E28
:100C26000E944E0EE8E3F1E00E94780D0E943B0E12
:100C36000E94510E0E944E0E0E945A0E0E945D0E98
:100C46000E947E0E0E94830E0E947F0D49DF0E9445
:100C56007F0D6CDEE03029F40E94890E66DDE0E04F
:100C66006FC00E94930E61F1103051F10E94140E74
:100C76000E94990E0E949F0E19F00E94A60E81F402
:100C86000E94140E0E94990E0E94AE0E0E94B40E8F
:100C96000E94BF0EE12FA2EEB3E00E9421110EC00A
:100CA6001F5F1E3660F011E00E94140E0E94990E1E
:100CB6000E94AE0E0E94B40E0E94BF0E10E0D4CF6A
:100CC6000E94C80E3DC038C0EEEFF3E00E94780DDA
:100CD6000E94030E0E94930E61F1103051F10E94A2
:100CE600140E0E94990E0E949F0E19F00E94A60EE5
:100CF60081F40E94140E0E94990E0E94AE0E0E946C
:100D0600B40E0E94BF0EE12FA2EEB3E00E942111A5
:100D16000EC01F5F1E3660F011E00E94140E0E9486
:100D2600990E0E94AE0E0E94B40E0E94BF0E10E0F5
:100D3600D4CF0E94C80E04C0E8E5F2E00E94970DE9
:100D46001881259608950E943D0D11F40C94CA074A
:100D56002597E1E0EC83E4E0F4E0FA93EA930E945D
:100D6600CE0E0E94D30EE091FA02E27009F0F7DC93
:100D76000E949B0D11F00C94B8070E94A20DF894E6
:100D86000E94CE0E0E94D70E78940E94A90D0E9452
:100D9600AE0DFF93EF930E94BB0DAF91BF91EA0F8B
:100DA600FB1FFF93EF930E94090FAF91BF91EA0FCC
:100DB600FB1FFF93EF930E94D70DAF91BF91EA0FF0
:100DC600FB1FFF93EF930E94E60DAF91BF910E9428
:100DD600F50D0E94000EE0E0E093F802EC81E030B1
:100DE60011F40C94B7070E94030E9FDCF8940E943E
:100DF600CE0E0E94D70E7894E0EAF0E00E94780DBD
:100E0600E8EEF3E0FA93EA930E94140F0E94F810BA
:100E16000E940A0E7196FF93EF930E94060E0E949F
:100E26000A0EAF91BF91EA0FFB1FFF93EF930E944B
:100E3600090FAF91BF91EA0FFB1FB796FF93EF9390
:100E46000E94D70DAF91BF91EA0FFB1FFF93EF935F
:100E56000E94E60DAF91BF910E94F50D0E940E0E05
:100E6600F8940E94CE0E0E94D70E78940E94110E1E
:100E7600E0E0EC83AC81A430F8F4EC81F0E0DE0134
:100E8600EA0FFB1F0F01AC81B0E0A252BC4F0E94DB
:100E96000511D001EC93EBEEF3E0FA93EA93EE81C1
:100EA600F0E0DE011296AE0FBF1FEC910E94D30E4A
:100EB600EC81EF5FEC83DECF0E94380E0E943B0E82
:100EC6000E94060E0E94400EECE2F1E00E94780DB0
:100ED6000E943B0E0E94140F0E944E0EE8E3F1E0C2
:100EE6000E94780D0E943B0EE0916505F091660523
:100EF60060916705709168050E944E0E0E945A0E19
:100F06000E945D0E0E947E0EE0916E050E94D30E39
:100F16000E947F0D0E941D0FE3DD08DDE030E1F445
:100F260004DC0E94CE0EE1500E942111EF5FE09199
:100F36006D05A0E0B0E0F0E00E94200FE0E0F0E0F8
:100F460060E070E00E9411110E943D0D19F0E4E18D
:100F5600E0936105E0E07AC2939AE0E0EC83E093E7
:100F660061050E94C80E72C20DC0EDE0F4E00E9459
:100F7600780D0E94030E939AE0E0E09361050E94CB
:100F8600C80E64C2E8E5F2E00E94970D2596089522
:100F9600EF97EF97E69784EBA0E0B0E0E0E9F2E0A8
:100FA6000E9444111A930A9310E001E0E091FA02BC
:100FB600E17009F0D4DBA8DCE03011F40C94F10800
:100FC6000E949B0D11F00C94E5080E94A90D0E9449
:100FD600250FE4E8F0E060E070E00E944E0E0E940B
:100FE600000EE0E0E093F802003011F40C94E408FF
:100FF6000E941D0F9ADBECE2F1E00E94970DE0E5FE
:10100600F1E00E94780D0E941D0F6ADD0E945F0DBF
:10101600E0EDF2E00E94570D309711F40C94D508DC
:10102600E0EEF2E00E94570D0E944610DE01AA553E
:10103600BF4FED93FD936D937C930E94321111F493
:101046000C94C6081A3050F40E942A0FA03320F0E0
:101056000E942A0FAB3308F001C001C01FC01F5FFA
:10106600DE01A255BF4F0E942B0D319760407040A4
:101076000E94340F0F01DE01AA55BF4F0E942B0DAF
:10108600319760407040E350FD4FE0810E94650D4E
:10109600D0010E9446100E94E410D4CF0E943B0F5C
:1010A6000E94440F0E943B0F0E94321111F40C94CF
:1010B600A7080E943B0F0E94440F0E944C0FFE019E
:1010C600EE54FF4F0190119061917081F0010E94E2
:1010D6003211E1F00E943B0F0E943211A1F00E94F2
:1010E600570F0E94340FFF93EF930E945E0F0E94EA
:1010F600D910AAE0B0E080E090E00E945310AF91D2
:10110600BF910E94E4100E944C0FD9CF0E945E0F3F
:101116000E94D910AA81BB818C819D810E943010CA
:10112600EA83FB836C837D83DE01A255BF4F0E9459
:10113600DF103197604070400E94E910DE01A6552D
:10114600BF4F0E942B0DAECFEA81FB816C817D8162
:10115600E093EF02F093F0026093F1027093F202D3
:10116600E0E0E093F702939AE9E2F4E0FA93EA9377
:101176000E94060E0E94400E0E94030ED6DADD245F
:101186000E94620F0BC0939AE3E3F4E00E94780D8D
:101196000E94030E0E94620FE4E0DE2E0E94AD0262
:1011A60000E00DC0939AE9E3F4E00E94780D0E94F6
:1011B600030E0E94620FE4E0DE2E0E94AD0200E004
:1011C60013CF0CC0EFE3F4E00E94780D0E94030EEB
:1011D6000E94620FE4E0DE2E0E94AD0219810881B2
:1011E600EF96EF96E89608951A9310E0E981FA8152
:1011F6003096E983FA83A981BA81EE27A10FBE1F33
:10120600EC91E03049F0E12F1F5FA981BA81F0E04F
:10121600AE0FBF1FEC91EFCFE12F18810C94130B8B
:101226000E94381110E000E030E0EEE8F3E00E94A2
:10123600780DE0EDF7E00E94970DE6EEF2E00E94F1
:10124600570D1E2F012F0E94140EEC59FF4FA02F91
:10125600B0E0AE17BF072CF5E02F0E94850DA081E8
:10126600A03071F0AF3F61F0AB3551F0AD3541F0D4
:10127600AB3731F0AD3721F0AD3011F0AA3009F4BB
:101286000AC0A32FB0E0A350BB4FE02F0E94850DEC
:10129600E081EC9303C0E12FEC590E2F3F5F0F5F07
:1012A600D2CF0E945F0D0E943F1124960895249785
:1012B6001A9311E0E091FA02E47011F00E94B20371
:1012C600E0E0E093F80211E0103089F0A0DBE030B6
:1012D60011F410E00BC0939AEFE3F4E00E94780D4E
:1012E6000E94030E1EE10E94660FAFC0EDCF12E012
:1012F600103011F40C94280A0E94430D91DFB4DBE0
:101306000E949803EAE9F0E00E94780D0E94A20D7F
:101316000E94250F0E946E0FE25BFF4FFF93EF9333
:101326000E94060E0E940A0EAF91BF91EA0FFB1FA4
:10133600FF93EF930E94D70DAF91BF91EA0FFB1F6A
:10134600FF93EF930E94E60DAF91BF91EA0FFB1F4B
:10135600EA57FF4F0E9446100E944E0E0E94000E52
:10136600E0E0E093F8020E94510DE6EDF1E00E9404
:10137600780D0E94250F0E94D70D3396FF93EF93A9
:101386000E94E60DAF91BF91EA0FFB1F3896319789
:10139600B196319779963197389631973896319735
:1013A600FF93EF930E946E0FAF91BF91EA0FFB1F61
:1013B6003896FF93EF930E94060E0E940A0EAF9195
:1013C600BF910E94F50D0E940E0E0E94110E10E0B4
:1013D600143040F40E94140E0E94170E0E94290E2B
:1013E6001F5FF6CF0E94380E0E943B0E0E94060E2B
:1013F6000E94400E0E945A0EE4EFF3E00E94760F20
:10140600ECE4F2E00E94780DE5E4F4E0FA93EA9366
:10141600EDEFF4E0662777270E944E0EEEE6F2E047
:101426000E94780D0E947E0E0E94830E59DB7EDAA2
:10143600E03011F4E0E009C0939AE8E4F4E00E9499
:10144600780D0E94030E0E94660F18812596089556
:10145600E091FA02E170E13041F49ADDE091FA029E
:10146600EE7FE093FA020E941D0FE091FA02E2700D
:10147600E230B9F40E94510E0E94321141F044DB71
:10148600E03029F4E091FA02ED7FE093FA025BDCAA
:10149600E03029F4E091FA02ED7FE093FA020E942F
:1014A6001D0FE091FA02E470E43041F400DFE03011
:1014B60029F4E091FA02EB7FE093FA02E091FA0256
:1014C600E030C1F4A091F802AF5FA093F802A93C06
:1014D60080F0A091F802A93C21F4E0E5F4E00E9436
:1014E600780D0E94430D939AEAECE093F8020E946D
:1014F600AD0203C0E0E0E093F8020895E0E0EBBB44
:10150600EABBE8BBE1E0E7BBE0E0E5BBE4BBE4E067
:10151600E2BBE8E0E1BBE0E0E3BFE2BFECBFEFBD6A
:10152600EEBDEDBDECBDE7BDE6BDEBBDEABDE9BD7B
:10153600E8BDE8E0E2BDE5E0E5BDE0E0E4BDE3BD31
:10154600EBB7E064EBBFE2E0E5BFE0E0E4BFE0E478
:10155600EABFE9BFE0E0EBB9E8E9EAB9E6E8E0BDF1
:10156600E0E0E0BDE2E0E9B9E0E2E7B9E5E8E6B9E6
:10157600E0E0EDB9E6BFE1E8E093FA02939A7894E9
:101586000E945F0DE6E5F4E00E94780D0E94A20D30
:10159600E6E6F4E00E94760FE2E0E093F702E091DF
:1015A600FA02E460E093FA02E091FA02E160E09365
:1015B600FA020E94CE0EEF3F29F4A2EEB3E0E0E07D
:1015C6000E9421110E943D0D19F0E4E1E0936105AE
:1015D6000E94510D3DDF0E94430DFCCFFFCFE5B7C2
:1015E600E068E5BF0895E5B7EF77E5BF0895E5B78D
:1015F600EF78E063E5BFEFB778948895EFBF08957D
:101606005D9BFECFE881ECB921960895EA81EA93C5
:10161600F7DFA881B981ED91FD913196FE93EE93A6
:10162600239608952C970E94361110E0AA89BB894B
:10163600E0E0F0E0ED93FC93E88DF98D3196E88FCC
:10164600F98F3197E4912E2FE03011F40C94D80CD9
:10165600E12FE03039F4253211F411E002C00E9486
:10166600930FA2C1E130C1F4253219F40E94930F01
:101676009AC112E0E0E0E98B00E02D3211F401E0BE
:1016860093C12B3219F4EBE2E98B8EC1203219F4A7
:10169600E0E2E98B89C102C0E23039F450E013E0A0
:1016A600203311F4006880C102C0E33091F4203386
:1016B60010F02A3308F007C0AAE05A9F502DE22FF7
:1016C600E0535E0F71C140E02E3211F414E06CC19C
:1016D6000EC0E43091F4203310F02A3308F007C02E
:1016E600AAE04A9F402DE22FE0534E0F5DC12C36F3
:1016F60019F4026015E058C104C0E53011F00C94ED
:10170600D70CE22FE33649F40E949C0FEE89FF893D
:10171600A481AA930E94A20F46C1E33751F40E9406
:101726009C0F0E94AA0FFA93EA930E94070D1E2FA0
:101736000CC0E037B1F40E949C0F0E94AA0FFA93E6
:10174600EA930E94110D1E2F08600F77403011F0AA
:10175600411708F001C0142F40E0E0E0E88B30E0CC
:1017660078C0E43611F0E93611F4046002C0E537BA
:10177600A1F4EAE0E88B01FF08C0E0E0FAEC6AE9D0
:101786007BE30E94B00F1AE023C0E0E1F7E260E0DD
:1017960070E00E94B00F15E01BC0E83511F4086038
:1017A60004C0E83711F00C94D60CE0E1E88B01FF99
:1017B60008C0E0E0F0E060E070E10E94B00F18E0E1
:1017C60007C0E0E0F0E160E070E00E94B00F14E0D6
:1017D600403011F00F7701C041E001FF08C00E94C0
:1017E6009C0FAE89BF8914960E94D91015C002FFBE
:1017F6000AC00E949C0FAE89BF8914960E94D5101C
:101806000E94461009C00E949C0FAE89BF8914969B
:101816000E94D51066277727EC87FD876E877F871E
:1018260002FF16C0AF85AA2362F4EC85FD856E859E
:101836007F850E943910EC87FD876E877F87EDE2F2
:10184600E98BE989E03019F01F5F4F5F01C00B7F1C
:10185600342F00FD14C0151710F4351708F00FC00B
:1018660007FF08C002FF04C00B7F2989115001C081
:1018760020E301C020E20E94930F5150ECCF1417D1
:10188600B0F4006102FF0AC00B7FE989EA930E9467
:10189600A20F503009F0515011504150E0E3EA9345
:1018A6000E94A20F503009F051504150E8CF312F1D
:1018B600E889E030B9F43030A1F003FF06C0EE81CC
:1018C600FF812591EE83FF8305C0AE81BF812D91F7
:1018D600AE83BF830E94930F503009F051503150B0
:1018E600EACF57C00E94B50F0E9490102E2F2A30C3
:1018F60030F003FF02C0295C01C0295A01C0205DF7
:1019060004FD25C0213360F4A885B9858A859B85A9
:10191600A130E0E0BE07E0E08E07E0E09E0709F4B4
:101926000BC0431740F4531710F000FF01C014C05A
:1019360020E207FF0CC020E3006102FF08C00B7F16
:10194600E989EA930E94A20F503009F051500E9493
:10195600930F503009F0515031500E94B50F0E943C
:10196600C310EC87FD876E877F87E889A885B985D0
:101976008A859B85FF27662777270E9490100E94FD
:10198600B00FE885F9856A857B850E94321109F0DA
:10199600A9CF00FF08C0503031F05150E0E2EA9381
:1019A6000E94A20FF8CF10E047CEAA89BB890E94F9
:1019B600D5100E943D116A960895FF92F82E26973B
:1019C6001A930A93DE0114960E942C108D01E0E012
:1019D600EC83ED83EE83EF83DE0118960E942C10D4
:1019E6000E94D510FA93EA931A930A93E9E0FBE072
:1019F600FA93EA93FE013896FA93EA9313DE198175
:101A060008812896FF900895A991B991EE27FF279E
:101A16006D91662311F03196FBCF0895AA27BB2757
:101A2600E991F9910590002011F01196FBCFFD0187
:101A360008950A921A92FA926A937A938A939A93DB
:101A4600AA93BA93EA93FA93EFB7EA930C94F60A39
:101A56000E94DF10EF5FFF4F6F4F7F4F0E94E9102C
:101A66000895E091EF02F091F0026091F102709119
:101A7600F2020895A2EEB3E00E940511E030089547
:101A8600E4E6F0E0FA93EA930C94BE0F0E94F3109A
:101A96000895A885B985AE0FBF1F0895E8ECF0E05C
:101AA600FA93EA930C94BE0FFA93EA93EDEFF2E001
:101AB600FA93EA930C943604E8EEF3E0FA93EA9389
:101AC6000C94BE0FF0E0F0970895EE83FF8308951F
:101AD600FA93EA93EE81FF810E9446100E94F81065
:101AE60084E00E94E00C2696E7CFFA93EA9380E022
:101AF6000E94E00C22960895ECEBF2E0FA93EA934A
:101B06000C94BE0FF0E0E350FD4F0895FA93EA936C
:101B1600E0916305FF27662777270E94F81084E087
:101B26000E94E00C26960895FA93EA930C94BE0F51
:101B3600E0E0E093F8020E940A05E0300895E0E054
:101B4600EA930E94FB02E093620508950E9437051E
:101B5600EAE9F0E0CACFE0EEF3E0FA93EA9381DF38
:101B66000E94F8100E94B803F0E0ED54FF4F08956C
:101B7600E091EB02F091EC026091ED027091EE02C1
:101B86000E94F8100E94B803F0E00895E091F30275
:101B9600F091F4026091F5027091F6020E94F8103D
:101BA6000E94B803F0E00895A0916205B0E0E4E178
:101BB600F0E00E948B100E9446100E94F8100E94CE
:101BC600B803F0E00895A0916205BB27E4E1F0E0D8
:101BD6000E94B5100E9446100E94F8100E94B80399
:101BE600F0E00895EA0FFB1F0E9446100E94F810CD
:101BF60084E00E94E00C26960895E3EEF3E086CF9B
:101C0600E2E3F0E091CF2DDF0E94F81008950E94E4
:101C1600B803F0E00895E6E1F1E067CFECE1F1E02A
:101C260064CFE12FF0E00895DE011196EA0FFB1F65
:101C36000F01A12FB0E0A252BC4F0E940511D001A6
:101C4600EC93EBEEF3E0FA93EA93EBCFDE01139617
:101C5600AE0FBF1FEC91FF27662777270E94F8106B
:101C660084E00E94E00C26960895E4E2F1E03DCF80
:101C7600E0EFF3E0FA93EA93089584E00E94E00C23
:101C860026960895E091EB02F091EC026091ED0248
:101C96007091EE0208950E94F810EFCFE091F302E2
:101CA600F091F4026091F5027091F6020895EEE368
:101CB600F1E01BCFE4EFF3E0FA93EA93A09162051B
:101CC600B0E0E4E1F0E00E948B100E9446100E9412
:101CD600F810A0916205BB27E4E1F0E00E94B51080
:101CE6000E9446100E94F81088E00E94E00C2A9696
:101CF600E6E4F1E0FACEEAEFF3E0FA93EA93089528
:101D0600E091F702FF2766277727C5CFE0E0E0934B
:101D1600F302E093F402E093F502E093F6020895ED
:101D2600939A11E0BBDF0E94321108953197A0E02B
:101D3600B0E00E9441100895AE0FBF1F0E94FD1033
:101D46000E9432110895EF3FAFEFFA07AFEF6A072F
:101D5600AFEF7A070895AE0FBF1F94DF0E941111EF
:101D660060CF3197A8EBB1E00E944110AE0FBF1FC4
:101D760095DF0E94111155CF3197E059FC4FDF01D5
:101D8600E091F7020E942111C1CFE2E0EA930E949E
:101D9600B202E0E00895A2EEB3E00E9405110895B4
:101DA600FF276627772777CFF0E03197E0936D0519
:101DB600A8EBB1E0F0E00E944110AE0FBF1F0E94F9
:101DC600FD10E0936505F0936605609367057093D3
:101DD6006805E0916D05A0E0B0E0F0E00E944110DA
:101DE600AE0FBF1F0E94FD10E0936905F0936A05D0
:101DF60060936B0570936C05A0916D05B0E0A059DA
:101E0600BC4F0E940511E0936E050895E0916505AB
:101E1600F091660560916705709168050E94F8105B
:101E2600F6CEE0916905F0916A0560916B057091B7
:101E36006C050895E4EFF1E077CE0E944110AE0FF5
:101E4600BF1F0895E0EEF3E0FA93EA930895FE01CA
:101E5600EA55FF4F0190F081E02DE350FD4FA08140
:101E66000895DE0116960E944110EA0FFB1F0895A1
:101E7600FE01E255FF4F0190119061917081F001D2
:101E86000895DE01AE54BF4FED93FD936D937C93A1
:101E96000895DE01AE54BF4F0E94DF1031976040B7
:101EA60070400E94E9100895FE01E655FF4F01902B
:101EB600F081E02D0895F8DFDE011696BECFE1E051
:101EC600EA930C94B202E4E0EA930E94B2020E9402
:101ED600AD02E0E00895EDEFF4E0FA93EA930E9494
:101EE600F708F0E00895FA93EA93A0916205B0E04E
:101EF600E4E1F0E00E948B100E9446100E94F81068
:101F0600A0916205BB27E4E1F0E00E94B5100E94B3
:101F160046100E94F81088E00E94E00C2A96089568
:101F26002A93EB89FC89FA93EA93EF89F88D099550
:101F36000895EE89FF893497EE8BFF8B0895EB8920
:101F4600FC89FA93EA93EF89F88D09950895AE898D
:101F5600BF8914960E94D510B8CDE887F9876A879D
:101F66007B870895E885F9856A857B85AC85BD857F
:101F76008E859F850895E991F991309639F08DEC1B
:101F860091E00197F1F7A8953197C9F7089550E8C0
:101F9600572711F45F932BC05F3F31F0660F000C9B
:101FA60057956795752F08955F9300200AF02BC00B
:101FB60024C0689401C0E894309760407040B1F046
:101FC600002426F0772312F4009450D0172E7EE1D9
:101FD600112032F07A95EE0FFF1F661F111CF9CF04
:101FE600EF2FF62F612D5F93D2DF5F910895EE27D5
:101FF600FF27662777275F910895EFEFFFEF6FE7DB
:102006007FEF5F910895EFEFFFEF6FE77FE75F9157
:10201600089599239AF0772342F0971748F029F408
:10202600AE17BF07860720F031F09894889408957C
:102036009894089408951894889408957723C2F77D
:10204600971798F3A9F7EA17FB07680788F399F338
:10205600ECCF0024AF0DB01D0895EA0FFB1F681FDB
:10206600791F0895F195E195F0400895F0956095F2
:102076007095E195FF4F6F4F7F4F0895EE0FFF1F4D
:10208600EE0FFF1F08956F2F660F660B762F0895CC
:10209600FA9FF02DEB9FF00DEA9FE02DF10D0895CC
:1020A6007A9F702D6B9F700DF89F700DE99F700DD4
:1020B6006A9F602D710DFB9F600D711DE89F600D7D
:1020C600711D8827FA9FF02D610D781FEB9FF00D8B
:1020D600611D781FEA9FE02DF10D681F781F089596
:1020E60053D0D6DF0EF4BEDF08950024112490E10C
:1020F600AA0FBB1F001C111C0E1A1F0A18F40E0E85
:102106001F1E01C0A1609A9599F7FD01D00108959F
:102116003BD0EBDF0EF4A6DF08953F934F935F931A
:10212600002411244427552730E2AA0FBB1F881F1D
:10213600991F001C111C441F551F0E1A1F0A460B1F
:10214600570B28F40E0E1F1E461F571F01C0A16015
:102156003A9559F7FD01BC01D001CA015F914F9133
:102166003F910895E894B7FF04C0A095B0951196E5
:102176006894F7FD77DFB9DFFD010EF473DF08958C
:10218600CCDFFD01BC010895E894F7FF02C06ADFC9
:102196006894B7FF06C0A095B095119600F8039411
:1021A60000FA0895ED91FC9111970895ED91FD9136
:1021B6006D917C9113970895ED91FD916D917D91AF
:1021C6000895ED93FD936D937C9308957E936E939E
:1021D600FE93EE930895E881F9816A817B810895E3
:1021E600A881B9818A819B8108957A936A93FA932B
:1021F600EA930895129602D0BF011297119602D063
:10220600FE2F1197E199FECFFF93FFB7F894AEBB6F
:10221600BFBBE09AEDB3FFBFFF91089507D01296BA
:102226000F01FB0103D0F0011297089507D0119614
:10223600EF93EF2F03D0EF9111970895E19B02C022
:10224600A895FCCF9FB7F894AEBBBFBBE09A8DB301
:10225600E81719F0EDBBE29AE19A9FBF089530970F
:102266006040704008955A934A933A932A931A937A
:102276000A9308955D814C813B812A8119810881E9
:102286000895AC0FBD1F05900D928A95E1F708954C
:00000001FF
